{
  "contractName": "Voting",
  "abi": [
    {
      "inputs": [],
      "stateMutability": "nonpayable",
      "type": "constructor"
    },
    {
      "anonymous": false,
      "inputs": [
        {
          "indexed": true,
          "internalType": "uint256",
          "name": "candidateId",
          "type": "uint256"
        }
      ],
      "name": "votedEvent",
      "type": "event"
    },
    {
      "inputs": [
        {
          "internalType": "uint256",
          "name": "",
          "type": "uint256"
        }
      ],
      "name": "candidates",
      "outputs": [
        {
          "internalType": "uint256",
          "name": "id",
          "type": "uint256"
        },
        {
          "internalType": "string",
          "name": "name",
          "type": "string"
        },
        {
          "internalType": "uint256",
          "name": "voteCount",
          "type": "uint256"
        }
      ],
      "stateMutability": "view",
      "type": "function",
      "constant": true
    },
    {
      "inputs": [],
      "name": "candidatesCount",
      "outputs": [
        {
          "internalType": "uint256",
          "name": "",
          "type": "uint256"
        }
      ],
      "stateMutability": "view",
      "type": "function",
      "constant": true
    },
    {
      "inputs": [
        {
          "internalType": "address",
          "name": "",
          "type": "address"
        }
      ],
      "name": "voters",
      "outputs": [
        {
          "internalType": "bool",
          "name": "",
          "type": "bool"
        }
      ],
      "stateMutability": "view",
      "type": "function",
      "constant": true
    },
    {
      "inputs": [
        {
          "internalType": "string",
          "name": "_name",
          "type": "string"
        }
      ],
      "name": "addCandidate",
      "outputs": [],
      "stateMutability": "nonpayable",
      "type": "function"
    },
    {
      "inputs": [
        {
          "internalType": "uint256",
          "name": "_candidateId",
          "type": "uint256"
        }
      ],
      "name": "vote",
      "outputs": [],
      "stateMutability": "nonpayable",
      "type": "function"
    }
  ],
  "bytecode": "0x608060405234801562000010575f80fd5b50620000576040518060400160405280600481526020017f52616d6100000000000000000000000000000000000000000000000000000000815250620000a360201b60201c565b6200009d6040518060400160405280600481526020017f4e69636b00000000000000000000000000000000000000000000000000000000815250620000a360201b60201c565b620004dc565b60025f815480929190620000b79062000151565b9190505550604051806060016040528060025481526020018281526020015f8152505f8060025481526020019081526020015f205f820151815f015560208201518160010190816200010a9190620003f8565b506040820151816002015590505050565b7f4e487b71000000000000000000000000000000000000000000000000000000005f52601160045260245ffd5b5f819050919050565b5f6200015d8262000148565b91507fffffffffffffffffffffffffffffffffffffffffffffffffffffffffffffffff82036200019257620001916200011b565b5b600182019050919050565b5f81519050919050565b7f4e487b71000000000000000000000000000000000000000000000000000000005f52604160045260245ffd5b7f4e487b71000000000000000000000000000000000000000000000000000000005f52602260045260245ffd5b5f60028204905060018216806200021957607f821691505b6020821081036200022f576200022e620001d4565b5b50919050565b5f819050815f5260205f209050919050565b5f6020601f8301049050919050565b5f82821b905092915050565b5f60088302620002937fffffffffffffffffffffffffffffffffffffffffffffffffffffffffffffffff8262000256565b6200029f868362000256565b95508019841693508086168417925050509392505050565b5f819050919050565b5f620002e0620002da620002d48462000148565b620002b7565b62000148565b9050919050565b5f819050919050565b620002fb83620002c0565b620003136200030a82620002e7565b84845462000262565b825550505050565b5f90565b620003296200031b565b62000336818484620002f0565b505050565b5b818110156200035d57620003515f826200031f565b6001810190506200033c565b5050565b601f821115620003ac57620003768162000235565b620003818462000247565b8101602085101562000391578190505b620003a9620003a08562000247565b8301826200033b565b50505b505050565b5f82821c905092915050565b5f620003ce5f1984600802620003b1565b1980831691505092915050565b5f620003e88383620003bd565b9150826002028217905092915050565b62000403826200019d565b67ffffffffffffffff8111156200041f576200041e620001a7565b5b6200042b825462000201565b6200043882828562000361565b5f60209050601f8311600181146200046e575f841562000459578287015190505b620004658582620003db565b865550620004d4565b601f1984166200047e8662000235565b5f5b82811015620004a75784890151825560018201915060208501945060208101905062000480565b86831015620004c75784890151620004c3601f891682620003bd565b8355505b6001600288020188555050505b505050505050565b610ba480620004ea5f395ff3fe608060405234801561000f575f80fd5b5060043610610055575f3560e01c80630121b93f146100595780632d35a8a2146100755780633477ee2e14610093578063462e91ec146100c5578063a3ec138d146100e1575b5f80fd5b610073600480360381019061006e919061041d565b610111565b005b61007d610297565b60405161008a9190610457565b60405180910390f35b6100ad60048036038101906100a8919061041d565b61029d565b6040516100bc939291906104fa565b60405180910390f35b6100df60048036038101906100da9190610662565b610348565b005b6100fb60048036038101906100f69190610703565b6103bc565b6040516101089190610748565b60405180910390f35b60015f3373ffffffffffffffffffffffffffffffffffffffff1673ffffffffffffffffffffffffffffffffffffffff1681526020019081526020015f205f9054906101000a900460ff161561019b576040517f08c379a0000000000000000000000000000000000000000000000000000000008152600401610192906107ab565b60405180910390fd5b5f811180156101ac57506002548111155b6101eb576040517f08c379a00000000000000000000000000000000000000000000000000000000081526004016101e290610813565b60405180910390fd5b6001805f3373ffffffffffffffffffffffffffffffffffffffff1673ffffffffffffffffffffffffffffffffffffffff1681526020019081526020015f205f6101000a81548160ff0219169083151502179055505f808281526020019081526020015f206002015f8154809291906102629061085e565b9190505550807ffff3c900d938d21d0990d786e819f29b8d05c1ef587b462b939609625b684b1660405160405180910390a250565b60025481565b5f602052805f5260405f205f91509050805f0154908060010180546102c1906108d2565b80601f01602080910402602001604051908101604052809291908181526020018280546102ed906108d2565b80156103385780601f1061030f57610100808354040283529160200191610338565b820191905f5260205f20905b81548152906001019060200180831161031b57829003601f168201915b5050505050908060020154905083565b60025f81548092919061035a9061085e565b9190505550604051806060016040528060025481526020018281526020015f8152505f8060025481526020019081526020015f205f820151815f015560208201518160010190816103ab9190610a9f565b506040820151816002015590505050565b6001602052805f5260405f205f915054906101000a900460ff1681565b5f604051905090565b5f80fd5b5f80fd5b5f819050919050565b6103fc816103ea565b8114610406575f80fd5b50565b5f81359050610417816103f3565b92915050565b5f60208284031215610432576104316103e2565b5b5f61043f84828501610409565b91505092915050565b610451816103ea565b82525050565b5f60208201905061046a5f830184610448565b92915050565b5f81519050919050565b5f82825260208201905092915050565b5f5b838110156104a757808201518184015260208101905061048c565b5f8484015250505050565b5f601f19601f8301169050919050565b5f6104cc82610470565b6104d6818561047a565b93506104e681856020860161048a565b6104ef816104b2565b840191505092915050565b5f60608201905061050d5f830186610448565b818103602083015261051f81856104c2565b905061052e6040830184610448565b949350505050565b5f80fd5b5f80fd5b7f4e487b71000000000000000000000000000000000000000000000000000000005f52604160045260245ffd5b610574826104b2565b810181811067ffffffffffffffff821117156105935761059261053e565b5b80604052505050565b5f6105a56103d9565b90506105b1828261056b565b919050565b5f67ffffffffffffffff8211156105d0576105cf61053e565b5b6105d9826104b2565b9050602081019050919050565b828183375f83830152505050565b5f610606610601846105b6565b61059c565b9050828152602081018484840111156106225761062161053a565b5b61062d8482856105e6565b509392505050565b5f82601f83011261064957610648610536565b5b81356106598482602086016105f4565b91505092915050565b5f60208284031215610677576106766103e2565b5b5f82013567ffffffffffffffff811115610694576106936103e6565b5b6106a084828501610635565b91505092915050565b5f73ffffffffffffffffffffffffffffffffffffffff82169050919050565b5f6106d2826106a9565b9050919050565b6106e2816106c8565b81146106ec575f80fd5b50565b5f813590506106fd816106d9565b92915050565b5f60208284031215610718576107176103e2565b5b5f610725848285016106ef565b91505092915050565b5f8115159050919050565b6107428161072e565b82525050565b5f60208201905061075b5f830184610739565b92915050565b7f596f75206861766520616c726561647920766f746564000000000000000000005f82015250565b5f61079560168361047a565b91506107a082610761565b602082019050919050565b5f6020820190508181035f8301526107c281610789565b9050919050565b7f496e76616c69642063616e6469646174652049440000000000000000000000005f82015250565b5f6107fd60148361047a565b9150610808826107c9565b602082019050919050565b5f6020820190508181035f83015261082a816107f1565b9050919050565b7f4e487b71000000000000000000000000000000000000000000000000000000005f52601160045260245ffd5b5f610868826103ea565b91507fffffffffffffffffffffffffffffffffffffffffffffffffffffffffffffffff820361089a57610899610831565b5b600182019050919050565b7f4e487b71000000000000000000000000000000000000000000000000000000005f52602260045260245ffd5b5f60028204905060018216806108e957607f821691505b6020821081036108fc576108fb6108a5565b5b50919050565b5f819050815f5260205f209050919050565b5f6020601f8301049050919050565b5f82821b905092915050565b5f6008830261095e7fffffffffffffffffffffffffffffffffffffffffffffffffffffffffffffffff82610923565b6109688683610923565b95508019841693508086168417925050509392505050565b5f819050919050565b5f6109a361099e610999846103ea565b610980565b6103ea565b9050919050565b5f819050919050565b6109bc83610989565b6109d06109c8826109aa565b84845461092f565b825550505050565b5f90565b6109e46109d8565b6109ef8184846109b3565b505050565b5b81811015610a1257610a075f826109dc565b6001810190506109f5565b5050565b601f821115610a5757610a2881610902565b610a3184610914565b81016020851015610a40578190505b610a54610a4c85610914565b8301826109f4565b50505b505050565b5f82821c905092915050565b5f610a775f1984600802610a5c565b1980831691505092915050565b5f610a8f8383610a68565b9150826002028217905092915050565b610aa882610470565b67ffffffffffffffff811115610ac157610ac061053e565b5b610acb82546108d2565b610ad6828285610a16565b5f60209050601f831160018114610b07575f8415610af5578287015190505b610aff8582610a84565b865550610b66565b601f198416610b1586610902565b5f5b82811015610b3c57848901518255600182019150602085019450602081019050610b17565b86831015610b595784890151610b55601f891682610a68565b8355505b6001600288020188555050505b50505050505056fea26469706673582212206f9cef0fc395e8fa6053491d7d9a333fe87be5f6254e723a0c2ecaa12e510a6b64736f6c63430008150033",
  "immutableReferences": {},
  "source": "//SPDX-License-Identifier: MIT\r\npragma solidity ^0.8.0;\r\n\r\ncontract Voting {\r\n    struct Candidate {\r\n        uint id;\r\n        string name;\r\n        uint voteCount;\r\n    }\r\n\r\n    mapping(uint => Candidate) public candidates;\r\n    mapping(address => bool) public voters;\r\n    uint public candidatesCount;\r\n\r\n    event votedEvent(uint indexed candidateId);\r\n\r\n    constructor() {\r\n        addCandidate(\"Rama\");\r\n        addCandidate(\"Nick\");\r\n    }\r\n\r\n    function addCandidate(string memory _name) public {\r\n        candidatesCount++;\r\n        candidates[candidatesCount] = Candidate(candidatesCount, _name, 0);\r\n    }\r\n\r\n    function vote(uint _candidateId) public {\r\n        require(!voters[msg.sender], \"You have already voted\");\r\n        require(\r\n            _candidateId > 0 && _candidateId <= candidatesCount,\r\n            \"Invalid candidate ID\"\r\n        );\r\n\r\n        voters[msg.sender] = true;\r\n        candidates[_candidateId].voteCount++;\r\n\r\n        emit votedEvent(_candidateId);\r\n    }\r\n}\r\n",
  "sourcePath": "C:\\Users\\HP\\Desktop\\ishara\\blockchain\\VotingDapp\\contracts\\Voting.sol",
  "compiler": {
    "name": "solc",
    "version": "0.8.21+commit.d9974bed.Emscripten.clang"
  },
  "schemaVersion": "3.4.16",
  "updatedAt": "2026-06-09T09:26:11.315Z",
  "networkType": "ethereum",
  "devdoc": {
    "kind": "dev",
    "methods": {},
    "version": 1
  },
  "userdoc": {
    "kind": "user",
    "methods": {},
    "version": 1
  }
}